

120140310014000008999990341SERVICIO NACIONAL DE APRENDIZA                                                                       
5005402409        020101                                                                                                
69004947477      ASOCIACION DE ZO0000110140094546       20140215000001830000000000112120001206000001                    
69004140833      BARGOL ASSETS S 0000110140944602       20140215000001830000000000112120001206000002                    
69000299915      BIOFOS BIOTECHNO0000110141666956       20140115000001830000000000012520001206000003                    
69000299915      BIOFOS BIOTECHNO0000110141668493       20140215000001830000000000011780001206000004                    
69000299915      BIOFOS BIOTECHNO0000110141661496       20131215000001830000000000012280001206000005                    
679155025        CAMILO YAMIN LAC000011017509295488     20140215000001140000000000019300001206000006                    
69003354837      CATALINA PEREZ S0000110141654314       20140215000003830000000000064960001206000007                    
6830000874       CHEMTURA COLOMBI000011017509816623     20140215000005140000000000954500001206000008                    
68600002544      CIMEX SA        0000110141652561       20140215000002830000000000250000001206000009                    
6830036149       CREDIT SUISSE AG000011018430997622     20140215000015840000000002677600001206000010                    
68300668523      DELAVAL LIMITADA0000110138427991       20140215000004830000000000578100001206000011                    
6900512552       EASY LEARNING EX000011018430998654     20140215000001840000000000012320001206000012                    
68001517433      Edifioio New Orl0000110141627426       20140215000002830000000000031320001206000013                    
6900019141       FUNDACION TRIPLE000011018430995665     20140215000004840000000000178900001206000014                    
69000419756      GLOBAL INTERNATI0000110141453002       20140215000002830000000000350000001206000015                    
68914088484      HOTEL DE PEREIRA0000110140584466       20140215000002830000000000162000001206000016                    
635469272        JUANA MARIA SALD000011017508878099     20140215000002140000000000036900001206000017                    
69006304713      MONKEY BUSINESS 0000110140674045       20140215000018830000000000727860001206000018                    
633440774        OCARIZ DE JESUS 0000110125597690       20140215000001890000000000012320001206000019                    
6830004748       PRICEWATERHOUSEC000011017508961001     20140215000029140000000003759000001206000020                    
6800074685       RECTICAR CIA EN 000011017509835849     20140215000001140000000000170000001206000021                    
68300310494      RG COMERCIAL S A0000110139114139       20140215000001830000000000140000001206000022                    
68301143765      SCHENCK PROCESS 0000110140856134       20140215000002830000000000224300001206000023                    
6830099847       SOFTTEK RENOVATI000011018430996049     20140215000042840000000005085400001206000024                    
6860028171       TRIMCO S A      000011017509590986     20140215000014140000000002823600001206000025                    
69005626850      ZUCA TECHNOLOGIE0000110141438082       20140215000003830000000000025430001206000026                    
6860031954       ANDES TOURS SA  000011018431002929     20140215000001840000000000135600001407000027                    
69000510581      ATENCION MEDICA 0000110141730196       20140215000001830000000000012320001407000028                    
68300023660      BIMBO DE COLOMBI0000110141333824       20140215000041830000000011240240001407000029                    
69001783534      CONDOMINIO CAMPE0000110141670027       20140215000002830000000000024640001407000030                    
6800005661       CONSULTORIAS EMP000011017508888337     20140215000001140000000000012300001407000031                    
6800005661       CONSULTORIAS EMP000011017509879110     20140315000001140000000000012300001407000032                    
6800110069       CORPORACION SERV000011014952232        20140215000001870000000000027300001407000033                    
69003616485      EDIFICIO ALTOS D0000110141738881       20140215000007830000000000124700001407000034                    
68300225702      FONDO DE EMPLEAD0000110141707863       20140215000004830000000000195680001407000035                    
69006385449      FUNDACION BIZCOR0000110139535628       20140215000010830000000000880100001407000036                    
68909326781      ETIFLEX S A     0000110125601263       20140215000001890000000000328800001407000037                    
6800053550       FUNDACION COSME 000011017509507620     20140215000031140000000001468200001407000038                    
6900266976       GEODIS GLOBAL SO000011018431004858     20140215000002840000000000295000001407000039                    
69004619608      Global Open Tech0000110141699298       20140215000001830000000000023580001407000040                    
68300202637      GRUPO PORTUARIO 0000110140593321       20140215000004830000000000598700001407000041                    
6830064955       HUNTING Y SELECT000011017509879226     20140215000001140000000000012300001407000042                    
69004097547      ikonosoft s a s 0000110140912831       20140215000004830000000000188660001407000043                    
68600031682      IMOCOM S A      0000110126025114       20140215000081880000000010080000001407000044                    
68020043604      INVERSIONES BJ S0000110125563377       20140215000003890000000000041920001407000045                    
69004334575      INDUSTRIAS TECNO0000110141515479       20140215000007830000000000164185001407000046                    
68600583891      INFERCAL S A    0000110125589975       20140215000001890000000000190000001407000047                    
69004708464      KNIGHT OIL TOOLS0000110138218110       20140215000009830000000002056300001407000048                    
69003907985      LA POLAR AGENCIA0000110141680759       20140215000001830000000000112100001407000049                    
6900202090       LA ROSITA PRIMAV000011017509872019     20140215000004140000000000074500001407000050                    
6860000759       LABORATORIO SUDA000011017509872221     20140215000001140000000000220500001407000051                    
68300336421      MACIAS GOMEZ Y A0000110141736529       20140215000003830000000000475300001407000052                    
69005246644      MAIL AND DELIVER0000110141683871       20140215000001830000000000046860001407000053                    
69006041543      NEOMOBILE COLOMB0000110139264291       20140215000005830000000000368900001407000054                    
69004095422      PETROAMERICA INT0000110137009901       20140215000012830000000003301400001407000055                    
68002433475      PROCEDATA INTERN0000110141706779       20140215000004830000000000572600001407000056                    
69003162997      PROCESADORA DE A0000110124086056       20131215000003880000000000024500001407000057                    
6201333590       PROMEXICO       0000110126062659       20140215000002880000000000201200001407000058                    
6860354541       QUINTEC COLOMBIA000011018431000409     20140215000006840000000000780800001407000059                    
69003477525      RENE RODRIGUEZ M0000110141345169       20140215000001830000000000160000001407000060                    
68904009737      ROBERTO ACERO V 000011016023809        20140215000001860000000000136000001407000061                    
69000633508      Rodriguez y Asoc0000110141675723       20140215000004830000000000476000001407000062                    
69001818654      SEMALCO LTDA    0000110126024104       20140215000033880000000000202300001407000063                    
69002041586      SIGMA GESTION DE0000110140537887       20140215000001830000000000130000001407000064                    
6900438551       SITECH SOLUCIONE000011018431000380     20140215000001840000000000098700001407000065                    
69001345707      TELEFONICA INTER0000110137195151       20140215000008830000000001251360001407000066                    
68300536624      TES AMERICA ANDI0000110125852251       20140215000002880000000000224200001407000067                    
6830098525       TOTAL TELECOMM L000011017509866124     20140215000001140000000000012300001407000068                    
69005101420      UNIKA HOTELS COR0000110141685466       20140215000002830000000000274100001407000069                    
671577078        ZAPATA S NCHEZ J000011014951502        20140215000001870000000000012300001407000070                    
6830021260       AUTOSNACK BOGOTA000011017509161880     20140215000002140000000000684900000930000071                    
69003334759      CONSORCIO DE SER0000110141618602       20140215000001830000000000150100000930000072                    
6830510201       CORPORACION CONV000011017509782427     20140315000001140000000000012300000930000073                    
6791515765       DIEGO FERNANDO G0000110141525989       20140215000002830000000000024640000930000074                    
69001515225      DIEZ CONSULTORES0000110139230485       20140215000002830000000000307400000930000075                    
6900420131       EDEN DE BELEN SA000011017508081301     20140115000001140000000000061000000930000076                    
68100058852      EDIFICIO MIRADOR0000110141586296       20140215000002830000000000028520000930000077                    
6900305666       FUNDACION PROBON000011018430994675     20140215000003840000000000145600000930000078                    
6900466655       IMASA INGENIERIA000011018430994866     20140215000001840000000000145500000930000079                    
69004836550      Indisign SAS    0000110141609580       20140215000001830000000000012320000930000080                    
69005678606      LOGAN OIL TOOLS 0000110136206831       20140215000002830000000000325500000930000081                    
68600631087      PAYANES ASOCIADO0000110140665482       20140215000002830000000000221200000930000082                    
68300714670      TRANSPORTE MINER0000110141539424       20140215000001830000000000218000000930000083                    
69003904142      TRIANAMED SAS   0000110141602322       20140115000002830000000000025340000930000084                    
69003904142      TRIANAMED SAS   0000110141602727       20140215000002830000000000024740000930000085                    
68300408728      ACTIVIDADES DE I0000110126072371       20140215000002880000000000385400001830000086                    
6860090915       ACTIVOS S A     000011014951889        20111015000001870000000000000700001830000087                    
6860023385       ALFA LAVAL S A  000011017508900442     20140215000017140000000004064200001830000088                    
6830019769       ARCHIES COLOMBIA000011018431009085     20140215000014840000000002274700001830000089                    
6860038350       ASOCIACION MEDIC000011011401545337     20140201000013140000000000328700001830000090                    
68020005910      ASOCIACISN CMVIC000011016028313        20140215000002860000000000024640001830000091                    
68300206418      CAFELINSA S A S 0000110126017397       20140215000008880000000000365700001830000092                    
68001466435      CONGRUPO S A    0000110139534271       20140215000011830000000001654600001830000093                    
6900579869       CONSORCIO OBRAS 000011018431006946     20140215000023840000000000456500001830000094                    
6900485243       CONSORCIO RESTAU000011018431006870     20140215000034840000000000939100001830000095                    
6900555745       CONSORCIO SALUS 000011018431006985     20140215000039840000000000779700001830000096                    
6900445847       CONSULTCORP  S A000011017509615059     20140215000001140000000000057400001830000097                    
68600506709      DENOMINACION BAU0000110126066046       20140215000002880000000000033300001830000098                    
69004782454      DO ADVERTAINMENT0000110125960441       20140215000003880000000000336300001830000099                    
6830032755       DUARTE GARCIA AB000011017509576231     20140215000005140000000000781200001830000100                    
6830145677       E SALUD SAS     000011018431008448     20140215000009840000000000383600001830000101                    
617032944        EDUARDO PALACIOS000011011401529110     20140201000001140000000000026000001830000102                    
69002312421      ESPINOSA ABOGADO0000110126092670       20140215000004880000000000560000001830000103                    
6900182852       ESTRUCTURALES E 000011011401535714     20140201000002140000000000035600001830000104                    
68600539667      FLORES TIBA S A 0000110141478414       20140215000002830000000000263800001830000105                    
69002554478      FUNDACION PUERTO0000110140962938       20140215000021830000000000805380001830000106                    
69002625830      GRUPO PENTA DIST0000110141719151       20130715000001830000000000037580001830000107                    
69002625830      GRUPO PENTA DIST0000110141783559       20140215000001830000000000112120001830000108                    
6811001850       IC ASESORIAS Y P000011017508989974     20140215000004140000000001011100001830000109                    
6900064443       INDUSTRIAS AUDIO000011017509758208     20140215000007140000000001202300001830000110                    
68600163850      INDUSTRIAS KORES0000110125857549       20140215000014880000000001764000001830000111                    
69001134350      INELECTRA COLOMB0000110141752912       20140215000079830000000012697700001830000112                    
6860070361       INVERSIONES AMSA000011011401538721     20140201000004140000000000060700001830000113                    
6860530138       JAROMA ROSES SA 000011018431006931     20140215000005840000000001308800001830000114                    
68605017079      Jicaro y cia ltd0000110141781197       20140215000001830000000000101620001830000115                    
69002236991      KAFASAR CIA SCA 0000110139658441       20140215000001830000000000020000001830000116                    
6860524772       KASSANI DISEO SA000011018431010654     20140215000001840000000000217000001830000117                    
631915212        LILIANA ABADIA G0000110124866532       20140115000001880000000000012600001830000118                    
68301403805      LOCATEL COLOMBIA0000110141721057       20140215000001830000000000183080001830000119                    
651974446        MARGARITA INES G000011011401526723     20140201000001140000000000012300001830000120                    
641738932        MARIA LUISA ALFO000011018431008386     20140215000001840000000000012320001830000121                    
68160034458      SEGURIDAD ACTIVA000011016001882        20130415000010860000000000026482001830000122                    
679569730        SALON LAVASECO E000011011401517198     20140201000001140000000000012300001830000123                    
68160034458      SEGURIDAD ACTIVA000011016003628        20130315000010860000000000040940001830000124                    
6900278246       SERICINCOL  SAS 000011018431008414     20140215000005840000000000021000001830000125                    
6860015576       SUBSUELOS SA    000011018431006115     20140215000014840000000001572400001830000126                    
68301417200      VERSATIL SOLUTIO0000110141751763       20140215000006830000000000095720001830000127                    
6860090915       ACTIVOS S A     000011014951921        20121215000001870000000000001100001830000128                    
68305117739      BRM S A         0000110125964411       20140215000089880000000000499300001830000129                    
68300955633      CANACOL ENERGY C0000110141744043       20140215000061830000000011204800001830000130                    
679354480        CARLOS VARGAS SE0000110126100827       20140215000001880000000000012300001830000131                    
69004834436      CONSORCIO HELIOS0000110125604259       20140215000017890000000000568000001830000132                    
6900490312       COOPERATIVA DE T000011017509892834     20140215000032140000000000383200001830000133                    
68600099495      COOPERATIVA DEL 0000110126041588       20140215000032880000000000876100001830000134                    
69004124661      ELITE FLOWERS FA0000110125577702       20140215000025890000000002995100001830000135                    
69002625830      GRUPO PENTA DIST0000110141743869       20131015000001830000000000076040001830000136                    
68000332562      INCORBANK SA BAN0000110141807683       20140215000001830000000000112120001830000137                    
68000429726      INGENIERIA SUMIN000011016028739        20140215000023860000000004151940001830000138                    
68000429726      INGENIERIA SUMIN000011016028859        20140215000002860000000000470700001830000139                    
68000429726      INGENIERIA SUMIN000011016028799        20140215000001860000000000214900001830000140                    
69004563465      INVERSIONES MUYS0000110139388200       20140215000001830000000000009240001830000141                    
6890209174       ISMOCOL DE COLOM000011018431012493     20140215000099840000000015997700001830000142                    
69006035036      MARCA INFORMACIO0000110141360049       20140215000001830000000000012760001830000143                    
6139574710       MAURICIO VELASCO0000110141808223       20140215000002830000000000023408001830000144                    
68110089636      MULTIENLACE S A 0000110125898783       20140215000092880000000011792500001830000145                    
68110089636      MULTIENLACE S A 0000110125936086       20140215000005880000000004732940001830000146                    
6800061948       PARKER DRILLING 000011018431012691     20140215000042840000000008654200001830000147                    
68600336334      RAYOGAS S A   E 0000110126002597       20140215000028880000000000951800001830000148                    
6791411340       SANTIAGO UCROS R0000110141789526       20140215000001830000000000013120001830000149                    
6900278246       SERICINCOL SAS  000011018431008596     20140215000002840000000000101000001830000150                    
69003065548      Tecnologia Creat0000110141158090       20140215000001830000000000193048001830000151                    
8000151001437000000015732633300                                                                                         
900000151001437000000015732633300000001                                                                                 



