

120140516014000008999990341SERVICIO NACIONAL DE APRENDIZA                                                                       
5005402409        020101                                                                                                
67001224378      HUMBERTO ENRIQUE0000110152616537       20140415000001830000000000018100000930000001                    
6890210114       LEON BLANCO SOCI000011017513735654     20140415000001140000000000240100000930000002                    
6700047483       MELI MELO       000011017513882355     20140415000001140000000000012320000930000003                    
6900322971       CPS COLOMBIA    000011018432658116     20140415000017840000000002945300000930000004                    
68300121832      ASESORIA GLOBAL 0000110153211297       20140415000005830000000000111560000930000005                    
6900274313       CARDIOELECTROFIS000011018432657587     20140415000001840000000000012700000930000006                    
68100058852      EDIFICIO MIRADOR0000110153554915       20140415000001830000000000003840000930000007                    
6830127077       IDEANDINA S A   000011017513889406     20140415000002140000000000027320000930000008                    
69004327987      KEY LOGISTICS SA0000110152671035       20140415000003830000000000483300000930000009                    
68305144490      SERVICIOS EN LIN0000110153211684       20140415000005830000000000139620000930000010                    
6900438285       ALL SECURITY SER000011018432664538     20140415000003840000000000686000001830000011                    
6900444678       AN DISEQO   CONS000011011401683365     20140401000001140000000000040000001830000012                    
6900444678       AN DISEQO   CONS000011011401703536     20140301000001140000000000041000001830000013                    
69004751420      BIOPARQUE PROYEC0000110126038171       20140415000001890000000000046300001830000014                    
6900180282       CAICER S A      000011011401704737     20140401000017140000000000207840001830000015                    
641765048        CLARA GUARIN GUT0000110126811239       20140415000001880000000000006200001830000016                    
6900224581       CONSORCIO PEDIAT000011011401704338     20140401000001140000000000042700001830000017                    
68301348708      COORPORACION BIO0000110126038082       20140415000003890000000000094600001830000018                    
6806001445       COPROPIEDAD EDIF000011011401676563     20140401000005140000000000088020001830000019                    
69003907953      ESTYLO 3A S A S 0000110153667702       20140415000001830000000000000821001830000020                    
621250187        IFIGENIA  JARAMI000011011401702939     20140401000001140000000000019900001830000021                    
69001653996      LERO LERO CDI SA0000110125978275       20140415000001890000000000210000001830000022                    
632505828        LUIS GUILLERMO C0000110153652230       20140415000002830000000000028960001830000023                    
620007267        Margarita Palomi000011016358983        20140415000001860000000000012320001830000024                    
6860021720       MUSEO DE ARTE MO000011011401706535     20140401000008140000000000153300001830000025                    
68902006861      PENAGOS HERMANOS0000110126020212       20140415000001890000000000098100001830000026                    
69004239416      REVISORIA IMPUES0000110153651762       20140415000003830000000000055040001830000027                    
619215826        RUEDA PALACIOS A000011011401698613     20140401000001140000000000012420001830000028                    
68909370841      BEMSA SAS       0000110125977678       20140415000003890000000000578700001830000029                    
69001760831      EDIFICIO TAURO P0000110153674694       20140415000001830000000000012320001830000030                    
6900325584       TECNOSTEAM ENERG000011018432666778     20140415000006840000000001045100001830000031                    
68301240321      Best Buddies Col0000110153598631       20140415000001830000000000001280001206000032                    
6985549330       CARLOS MARIO LON0000110126035285       20140415000002890000000000031100001206000033                    
6522142868       CARMEN LILIA AGU0000110153610085       20140415000001830000000000012320001206000034                    
6830123828       DATASEG LTDA    000011017513891206     20140415000001140000000000012420001206000035                    
69003563601      FUNDACION POLIGR0000110153274400       20140415000002830000000000092200001206000036                    
6900282989       FUNDACION SOCIAL000011017513836833     20140415000001140000000000050000001206000037                    
69002100916      GIGONSA DE COLOM0000110125926330       20140415000001890000000000216400001206000038                    
69002050909      GM ISUZU CAMIONE0000110153610189       20140415000010830000000001915700001206000039                    
6900293880       HABLANDO CON JUL000011017513279187     20140415000001140000000000021000001206000040                    
6192818816       HENRY CANO MEDIN0000110153609457       20140415000001830000000000012320001206000041                    
67001224378      HUMBERTO ENRIQUE0000110152615474       20140315000001830000000000018600001206000042                    
69005950925      Inversiones Liat0000110153571049       20140215000001830000000000012920001206000043                    
69005950925      Inversiones Liat0000110153571640       20140315000001830000000000012620001206000044                    
6171787914       NESTOR EDUARDO M0000110153616883       20140415000003830000000000049800001206000045                    
69007063967      ZURICH COLOMBIA 0000110152466383       20140415000001830000000000585800001206000046                    
68301347606      Symmetry S A    0000110153607436       20140415000001830000000000020000001206000047                    
68301131495      A   C AUDITING  0000110153646056       20140415000001830000000000123160001407000048                    
68300168852      ASOCIACION COLOM0000110126877991       20140415000001880000000000142400001407000049                    
68300168852      ASOCIACION COLOM0000110126877162       20140415000001880000000000032000001407000050                    
6900119946       ASTILLERO MARITI000011018432660773     20140415000001840000000000129900001407000051                    
6900508871       COMERCIALIZADORA000011018432662329     20140415000007840000000000106780001407000052                    
69001807873      CONSTRUCCIONES P0000110126788586       20140415000002880000000000300000001407000053                    
6791515765       DIEGO FERNANDO G0000110153629891       20140415000002830000000000024640001407000054                    
68002470859      DIRECCION INTEGR0000110126032389       20140415000009890000000001584900001407000055                    
68000242650      EDITORIAL SANTIL0000110152683409       20140315000001830000000000079120001407000056                    
68000242650      EDITORIAL SANTIL0000110152702460       20140315000001830000000000176600001407000057                    
6860531083       EL PALACIO DEL A000011018432663049     20140415000001840000000000141700001407000058                    
68600347803      FERNANDO PACHON 0000110153636273       20140415000001830000000000026000001407000059                    
6101089235       Floristerma mult000011016357836        20140115000001860000000000013320001407000060                    
6900312289       FUNDACION BANCO 000011017513800588     20140415000059140000000001312340001407000061                    
68300325862      GREENTECH LTDA  0000110126882033       20140415000008880000000000678800001407000062                    
68300853910      KIMIK LTDA      0000110153649219       20140415000006830000000000204140001407000063                    
68301403805      LOCATEL COLOMBIA0000110153527235       20140415000001830000000000219700001407000064                    
69004303409      RAMIREZ DUARTE Y0000110153605676       20140415000001830000000000056460001407000065                    
8000065000232000000001589024100                                                                                         
900000065000232000000001589024100000001                                                                                 



